S01600004B65706C65724669726D776172652E737265636E
S214400000C8B900206D844000DD834000DD83400099
S214400010DD834000DD834000DD83400000000000BB
S214400020000000000000000000000000DD834000EB
S214400030DD83400000000000DD834000DD8340009B
S214400040DD834000DD834000DD834000DD834000EB
S214400050DD834000DD834000DD834000DD834000DB
S214400060DD834000755240008D524000A55240004E
S214400070BD524000D5524000DD834000DD83400045
S214400080DD834000DD834000DD834000DD834000AB
S214400090DD834000DD834000DD8340009513400053
S2144000A06D2B4000DD834000DD834000DD83400053
S2144000B0DD834000DD834000250C40003D0C4000C1
S2144000C0DD834000DD834000DD834000DD5440009A
S2144000D0DD834000C12B4000DD834000DD834000CF
S2144000E0DD834000DD834000DD834000DD8340004B
S2144000F0DD834000DD83400010B5054C237833B9DE
S214400100044B13B10448AFF300800123237010BDA5
S214400110F8090020000000007CAF40000C4B43B1C3
S2144001200C480D4910B5AFF300800C48036823B95E
S21440013010BD0A48036833B97047094B002BF7D007
S214400140BDE810401847064B002BF5D0184700BFB7
S214400150000000007CAF4000FC0900207CAF40005F
S2144001600000000080B483B000AF78600B467B8010
S21440017000BF0C37BD465DF8047B704780B485B041
S21440018000AF78600B46FB707B685B68FB60FB7873
S214400190FF2B04D1FB6843F08003FB6007E0FB685D
S2144001A023F08F03FB60FB78FA681343FB607B68A1
S2144001B0FA685A6000BF1437BD465DF8047B704746
S2144001C080B483B000AF78607B6802221A6000BFBC
S2144001D00C37BD465DF8047B7047000080B582B0A2
S2144001E000AF78600B467B807B8848F23F029342A4
S2144001F004D07B88194678680A4B98477B8848F233
S2144002003F02934205D07B88012202FA03F31A4646
S21440021001E048F23F027B685A6100BF0837BD469E
S21440022080BD00BF6501400080B582B000AF7860F9
S2144002300B467B807B8819467868054B98477A88BA
S2144002407B685A667B689B6E18460837BD4680BDFD
S2144002506501400080B582B000AF78600B467B8079
S21440026013463B807B8819467868074B98477A88C0
S2144002707B685A663B88C3F30B027B68DA6600BF2E
S2144002800837BD4680BD00BF6501400080B483B0DE
S21440029000AF78607B681B6A9BB218460C37BD4639
S2144002A05DF8047B704780B483B000AF78607B68AD
S2144002B01B6B18460C37BD465DF8047B704780B410
S2144002C085B000AF78607B68DB69FB607B68FA6866
S2144002D0DA657B685B6803F08003802B01D11923C5
S2144002E003E07B6808221A60002318461437BD4690
S2144002F05DF8047B7047000080B582B000AF786040
S2144003007868034B984700BF0837BD4680BD00BF9E
S2144003103D82400090B589B000AF1E202C4B9847D8
S2144003203B1D18462B4B98472B482C4B98473B1D5C
S214400330194629482A4B984700212748294B984771
S2144003403B1D1A4603212448274B98473B1D1A4617
S21440035004212148244B98473B1D1A4605211E4838
S214400360214B98474FF4006203211B481F4B984788
S2144003704FF40062042118481C4B98474FF4006223
S21440038005211548194B984703211348184B9847A1
S21440039004211148164B984705210F48144B98479F
S2144003A00E23144A07210C48134CA0470A48134B07
S2144003B0984700BF0848124B9847034603F000434F
S2144003C0B3F1004FF6D100BF2437BD4690BD00BF05
S2144003D0F9024000F908400000000B40550C400070
S2144003E0610940007D01400065084000550240001C
S2144003F0DD01400005044000F9094000BF0240000E
S214400400A702400080B58AB000AF2148214B9847EC
S21440041003467B6203211E481F4B984703463B62B8
S21440042004211B481C4B98470346FB61052118488E
S214400430194B98470346BB61184A07F10C0307CA95
S21440044003C31A803B6A1B12DBB23B743B6ADBB2C7
S2144004507B74FB691B12DBB2BB74FB69DBB2FB74BB
S214400460BB691B12DBB23B75BB69DBB27B7507F120
S2144004700C037B607B687B600A233B813B1D1846F0
S214400480074B984700BF18462837BD4680BD00BF7B
S21440049000000B408D02400029024000CCAB4000DB
S2144004A03D1A400080B500AF044B1B68002B02D1BC
S2144004B00348044B984700BF184680BD140A0020E6
S2144004C000000B40C101400080B483B000AF03463B
S2144004D0FB71094997F907305B09FA7902F01F0268
S2144004E0012000FA02F241F8232000BF0C37BD4637
S2144004F05DF8047B704700BF00E100E080B483B045
S21440050000AF0346FB71094997F907305B09FA7952
S21440051002F01F02012000FA02F2603341F8232065
S21440052000BF0C37BD465DF8047B704700E100E035
S21440053080B483B000AF03463960FB7197F907304B
S214400540002B0BDA0D49FB7903F00F03043B3A68A6
S214400550D2B21201D2B20B441A7609E0084997F992
S21440056007303A68D2B21201D2B20B4483F8002365
S21440057000BF0C37BD465DF8047B704700ED00E0D9
S21440058000E100E080B483B000AFEFF310837B60FF
S2144005907B68002B0CBF01230023DBB23B6072B6A6
S2144005A0BFF35F8F044B00221A703B6818460C3727
S2144005B0BD465DF8047B7047AA01002080B483B036
S2144005C000AF78607B68002B14BF01230023DBB2AA
S2144005D018460C37BD465DF8047B704780B582B040
S2144005E000AF78607868074B98470346002B05D0E5
S2144005F0054B01221A70BFF35F8F62B600BF083703
S214400600BD4680BDBD054000AA01002080B483B031
S21440061000AF78600B467B8000BF0C37BD465DF868
S214400620047B704780B483B000AF78607B681B6BF8
S21440063018460C37BD465DF8047B704780B483B0DF
S21440064000AF78607B68DB6A18460C37BD465DF8BD
S214400650047B704780B584B000AF0346FB71FB79DE
S2144006600A4AD35CFF2B00D1FEE7094B9847F86057
S214400670FB79064AD25C0132D1B2044AD154F868BA
S214400680044B984700BF1037BD4680BD64890020A4
S21440069085054000DD05400080B483B000AF78603B
S2144006A07B68072B25D801A252F823F0CD064000E0
S2144006B0D3064000D9064000DF064000E30640006F
S2144006C0E7064000EB064000EF0640004FF4FA43D2
S2144006D010E04FF400430DE04FF400430AE0084BAF
S2144006E008E0084B06E0084B04E0074B02E0064BE8
S2144006F000E0002318460C37BD465DF8047B704783
S21440070000093D0000127A00001BB70080B500AF1C
S2144007100620034B984703461B01184680BD00BF82
S2144007209906400080B500AF024B984703465B08E9
S214400730184680BD0D07400080B483B000AF786097
S2144007407B68094A934201D1012306E07B68074A49
S214400750934201D1002300E0002318460C37BD46E3
S2144007605DF8047B704700BF00400B4000000B4024
S21440077080B483B000AF78607B68094A934201D169
S2144007801F2306E07B68074A934201D11E2300E000
S2144007901E2318460C37BD465DF8047B704700BFE5
S2144007A000400B4000000B4080B485B000AF78603E
S2144007B039600023FB603B68DB7D002B02D04FF0A6
S2144007C0004200E000223B689B7D002B02D04FF4A5
S2144007D0000300E000231A433B6859683B689B6867
S2144007E05B00B1FBF3F3013B1B029BB21A433B6831
S2144007F01B691A433B681B7D1B0603F070631A4354
S2144008003B685B7D1B0703F040531A433B68DB683D
S2144008101343FB607B68FA685A603B681B7E002B7C
S21440082002D04FF0807200E000223B681B681A43FB
S2144008303B685B7E002B02D04FF0007300E0002345
S2144008401A437B689A603B689B7E1B0203F44072A7
S2144008507B68C3F8942000BF1437BD465DF8047B20
S2144008607047000080B586B000AFF8600B467A60EF
S2144008707B817B891946F8681E4B984700237B612D
S214400880FB681B6E7B617B89012202FA03F3DB4324
S2144008907A6913407B617B681B78002B04D07B8988
S2144008A0012202FA03F300E000237A6913437B61D6
S2144008B0FB687A691A66FB685B6D7B617B895B00C7
S2144008C0032202FA03F3DB437A6913407B617B68B9
S2144008D05B781A467B895B0002FA03F31A467B690B
S2144008E013437B61FB687A695A6500BF1837BD467B
S2144008F080BD00BF0D06400080B582B000AF786076
S2144009007B6800221A60144B984702467B685A6000
S2144009107B68124A9A607B684FF48022DA607B6874
S21440092000221A617B6802221A757B6801225A757A
S2144009307B6801229A757B680022DA757B68012203
S2144009401A767B6801225A767B6801229A7600BF27
S2144009500837BD4680BD00BF25074000808D5B0040
S21440096080B584B000AF7860396078681D4B984792
S214400970034603F08073B3F1807F01D119232CE046
S2144009807B6801221A6039687868174B98477B68FD
S214400990164A93420DD10023FB6007E0144AFB68D9
S2144009A0002142F82310FB680133FB60FB680D2BE7
S2144009B0F4D97B680F4A93420ED10023FB6008E0CF
S2144009C00B4AFB680E33002142F82310FB680133C4
S2144009D0FB60FB680D2BF3D9002318461037BD4645
S2144009E080BD00BF25064000A907400000000B4020
S2144009F0BC88002000400B4080B586B000AFF86051
S214400A00B9607A60FB70F868194B98477861194965
S214400A107A691346DB009B1A5B00BA6813447A680F
S214400A2041F823207B69002B0BD11E20124B9847A0
S214400A30FB7819461E20114B98471E20104B9847AE
S214400A400DE07B69012B0AD11F200B4B9847FB78A2
S214400A5019461F20094B98471F20094B9847B968ED
S214400A60F868084B984700BF1837BD4680BD00BFA2
S214400A7039074000BC880020FD0440003105400096
S214400A80C9044000890A400080B483B000AF786053
S214400A9039603B68194A934203D17B68174A5A62C9
S214400AA026E03B68062B0FD83B68062B04D17B68B4
S214400AB04FF400425A621BE001223B6802FA03F3FD
S214400AC01A467B685A6213E03B680B2B08D83B6893
S214400AD01133012202FA03F31A467B685A6207E092
S214400AE03B681233012202FA03F31A467B685A62C5
S214400AF00C37BD465DF8047B704700BF3F8000DF83
S214400B0080B582B000AF03463960FB71FA790D4973
S214400B101346DB009B1A5B003A68134451F82330B7
S214400B20002B0AD0FA7907491346DB009B1A5B0074
S214400B303A68134451F82330984700BF0837BD46FB
S214400B4080BD00BFBC88002090B587B000AF7860FD
S214400B507868304B9847044678682F4B984703464A
S214400B602340FB6078682D4B9847386100237B61B3
S214400B7048E07B69062B1ED87B69062B0BD1FB68A9
S214400B8003F40043002B3AD03B69DBB27969184640
S214400B90234B984733E001227B6902FA03F31A4657
S214400BA0FB681340002B2AD03B69DBB279691846B4
S214400BB01B4B984723E07B690B2B10D87B6911337E
S214400BC0012202FA03F31A46FB681340002B16D0A4
S214400BD03B69DBB279691846114B98470FE07B6951
S214400BE01233012202FA03F31A46FB681340002B25
S214400BF005D03B69DBB279691846094B98477B6953
S214400C0001337B617B690D2BB3D900BF1C37BD46D2
S214400C1090BD00BF250640003D0640003907400015
S214400C20010B400080B500AF0248034B984700BF19
S214400C3080BD00BF00000B40490B400080B500AFB0
S214400C400248034B984700BF80BD00BF00400B40A2
S214400C50490B400080B584B000AF78607868064B9A
S214400C609847F860F868054B98470220044B984729
S214400C7000BF1037BD4680BD710740003D82400032
S214400C805506400080B58AB000AFF860B9607A601B
S214400C907B6846F2A81202FB03F2BB6813445A1E56
S214400CA07B6846F2A81101FB03F3B2FBF3F3802BFB
S214400CB001D9002386E0BB685A087B684FF4FA5196
S214400CC001FB03F39A4201D200237BE0082387F816
S214400CD027304FF0FF333B620823FB772AE0FB7F49
S214400CE07A6802FB03F34FF47A7202FB03F3BA68A6
S214400CF0B2FBF3F3802B1AD8FB7F7A6802FB03F330
S214400D004FF47A7202FB03F2BB68B3FBF2F102FBCC
S214400D1001F29B1ABB61BA693B6A9A4207D2BB6929
S214400D203B62FB7F87F827303B6A002B06D0FB7F71
S214400D300133FB77FB7F192BD1D900E000BF97F832
S214400D4027307A6802FB03F34FF47A7202FB03F310
S214400D50BA68B2FBF3F3FB75FB7D012B01D8002389
S214400D6030E097F82730A3F1080213465B0013449F
S214400D705B00164A13443B61F868154B98473B693D
S214400D80DB78013B03F007023B699B78013B1B0184
S214400D9003F070031A433B695B78013B1B0203F484
S214400DA0E0631A433B691B79013B1B0303F4405342
S214400DB01A43FB7D013B1B0403F4FE031A43FB6806
S214400DC05A61012318462837BD4680BDE8AB40002F
S214400DD0710E400080B586B000AFF860B9607A60AA
S214400DE07A68B968F868154B984778617B69002B34
S214400DF001D100231EE0F868114B984700237B6121
S214400E0000233B6106E0F8680E4B984778613B69E3
S214400E1001333B617B6903F40013002B03D13B692C
S214400E20094A9342EFD93B69084A934201D10023CD
S214400E3000E0012318461837BD4680BD850C4000AB
S214400E40510E4000C90E40009F860100A08601005A
S214400E5080B483B000AF78607B681B6843F00102C3
S214400E607B681A6000BF0C37BD465DF8047B704750
S214400E7080B483B000AF78607B681B6823F00102C3
S214400E807B681A6000BF0C37BD465DF8047B704730
S214400E9080B483B000AF786039607B683A685A6047
S214400EA000BF0C37BD465DF8047B704780B483B006
S214400EB000AF786039607B683A689A6000BF0C374C
S214400EC0BD465DF8047B704780B483B000AF786061
S214400ED07B681B6918460C37BD465DF8047B704737
S214400EE080B485B000AF78600B46FB707B685B6A69
S214400EF023F0FF03FB60FA78FB681A437B685A626C
S214400F0000BF1437BD465DF8047B704780B483B09D
S214400F1000AF78600B46FB70FB787A685B01134441
S214400F2003F504731B6818460C37BD465DF8047B12
S214400F30704780B485B000AF786039603B681B6806
S214400F40FB73FB7B3A689279120402F4702242F4F7
S214400F50000279685B010B4403F507731A6000BF13
S214400F601437BD465DF8047B704780B485B000AF4B
S214400F70786039603B681B68FB733B681B79002BC5
S214400F802FD1FB7B7A6810335B01134400221A6032
S214400F90FB7B7A6810335B011344043300221A60EB
S214400FA0FB7B7A685B01134403F5027300221A60E8
S214400FB0FB7B7A685B01134403F5057300221A60D5
S214400FC0FB7B7A685B01134403F5067300221A60C4
S214400FD0FB7B7A685B01134403F5077300221A60B3
S214400FE050E0FB7BFA7B7968103252010A44126863
S214400FF022F470223968C97909040A4379681033A3
S2144010005B010B441A603B685B79002B16D0FB7B78
S2144010103A68D26842F00052796810335B010B445C
S21440102004331A60FB7B3A68126942F000527968D2
S2144010305B010B4403F502731A6011E0FB7B3A68D0
S214401040D268796810335B010B4404331A60FB7B2B
S2144010503A68126979685B010B4403F502731A60BB
S214401060FB7BFA7B7968103252010A44126822F000
S214401070E0623968097909060A43796810335B01EA
S2144010800B441A601437BD465DF8047B7047000079
S21440109080B586B000AF7860396000237B613B68DE
S2144010A01B68FB743B689B68FB60FB6803F40003AB
S2144010B0002B06D0FB6803F08073002B01D0022380
S2144010C07B61FB7C7A685B01134403F502731A6804
S2144010D03B681A61FB7C7A6810335B0113441A68DC
S2144010E03B68DA60FB7C7A685B01134403F5037364
S2144010F01B6823F060423B685A61FB681B0CDBB2FE
S21440110003F00F03DAB23B689A713B6808229A7183
S214401110FB7C7A685B01134403F505731A683B68E9
S2144011209A61FB7C7A685B01134403F506731A6880
S2144011303B68DA61FB7C7A685B01134403F5047311
S2144011401A683B689A603B689B68FB60FB6803F0E4
S2144011508073002B03D07B6943F004037B613968BE
S2144011607868034B98477B6918461837BD4680BD5C
S214401170330F400080B584B000AF786039603B687C
S2144011801B68FB73FB7B19467868274B98470246DB
S2144011903B689A603B689B68BB60BB6803F400038F
S2144011A0002B01D101233BE03B685B79002B0BD041
S2144011B0FB7B3A68126942F0005279685B010B4447
S2144011C003F502731A6008E0FB7B3A681269796897
S2144011D05B010B4403F502731A60FB7B3A68926925
S2144011E079685B010B4403F505731A603B689B798D
S2144011F0042B08D9FB7B3A68D26979685B010B44BB
S21440120003F506731A60FB7B3A689279120402F47F
S214401210702279685B010B4403F507731A6000235C
S21440122018461037BD4680BD0D0F400080B58CB0C7
S21440123000AF786000233B74002387F82F300DE022
S21440124097F82F30FB6007F10C0319467868074B78
S214401250984797F82F30013387F82F3097F82F307C
S214401260072BEDD900BF3037BD4680BD6B0F400021
S21440127080B584B000AFF860B9607A607B681B02C6
S21440128003F47062BB68134343F080631946F86802
S214401290034B9847002318461037BD4680BD00BF15
S2144012A0AF00002080B582B000AF786039603A6801
S2144012B079680448044B9847002318460837BD46CB
S2144012C080BD00BF000A0E407112400090B58BB042
S2144012D002AF7860396007F10C020423009313468E
S2144012E00F220E211348144CA0470346002B01D072
S2144012F010231BE03B68042B01D904233B600023EA
S214401300FB610EE0FB699B007A681A44FB699B0010
S21440131007F120010B4453F8143C1360FB6901337A
S214401320FB61FA693B689A42ECD30023184624379F
S214401330BD4690BD000A0E400B00002080B400AFB2
S21440134000BFBD465DF8047B704780B483B000AFF5
S214401350786000BF0C37BD465DF8047B70470000E0
S21440136080B483B000AF0346FB71094997F9073054
S2144013705B09FA7902F01F02012000FA02F260339C
S21440138041F8232000BF0C37BD465DF8047B70470C
S21440139000E100E098B500AF02210B480B4B9847A0
S2144013A0034603F01003102B0BD11720084B984729
S2144013B0084BD3E90034013344F10004054AC2E93E
S2144013C0003400BF98BD00BF000009400B16400027
S2144013D061134000180A002080B58CB000AF04218D
S2144013E00020174B9847F862FB6A002B0CD002236C
S2144013F03B610B237B610023BB6107F1100318465A
S214401400104B9847002316E007F11C0304211846AA
S2144014100D4B9847F862FB6A002B0BD002237B608B
S2144014200C23BB600023FB603B1D1846054B9847CA
S214401430002300E0002318463037BD4680BD00BF7D
S214401440A512400031164000CD12400080B586B04F
S21440145000AF78607B68002B0CD00E4B9847024656
S2144014607B689A4206D10C4B01229A70E2200B4BC5
S21440147098470AE0E223FB6014233B6100237B612C
S21440148007F10C031846064B984700BF1837BD4671
S21440149080BD00BFC1144000200A0020151B40003C
S2144014A03116400080B500AF034B00229A70E6200C
S2144014B0024B984700BF80BD200A0020151B400005
S2144014C080B582B000AF0D4B984778607B68002BA4
S2144014D00ED07B681A687B6808331B681A437B68A3
S2144014E0043319687B680C331B680B43534000E099
S2144014F0002318460837BD4680BD00BFD9134000BC
S21440150080B487B000AFF860B9607A60FA68BB68AC
S2144015109B0113447B617B6902221A607B694FF012
S214401520FF329A627B691B6A7B697A685A6000BFA1
S2144015301C37BD465DF8047B704780B483B000AF6F
S21440154078607B680122C3F8C02000BF0C37BD46D8
S2144015505DF8047B704780B483B000AF7860396034
S2144015607A683B689B01134405221A6000BF0C371B
S214401570BD465DF8047B704780B483B000AF7860AA
S21440158039607A683B689B01134402221A6000BFA8
S2144015900C37BD465DF8047B704780B483B000AF1F
S2144015A0786039607A683B689B01134410331B6847
S2144015B018460C37BD465DF8047B704780B485B04E
S2144015C000AFF860B9607A60FA68BB689B01134464
S2144015D01C337A681A6000BF1437BD465DF8047B3A
S2144015E0704780B487B000AFF860B9607A60FA6838
S2144015F0BB689B0113447B617B697A685A6200BF73
S2144016001C37BD465DF8047B704780B485B000AF9C
S214401610786039607A683B689B011344FB60FB68DE
S2144016201B6A18461437BD465DF8047B70470000B9
S21440163080B586B000AF786002233B7400237B748D
S2144016400423BB74EF23FB747B681B68DBB23B75DB
S2144016507B685B68DBB27B757B689B68DBB2BB757F
S21440166007F11003BB600723BB8107F10803184648
S214401670024B984700BF1837BD4680BD3D1A400014
S21440168080B483B000AF78607B68072B25D801A272
S21440169052F823F0B5164000BB164000C116400075
S2144016A0C7164000CB164000CF164000D316400069
S2144016B0D71640004FF4FA4310E04FF400430DE0D5
S2144016C04FF400430AE0084B08E0084B06E0084B9E
S2144016D004E0074B02E0064B00E0002318460C37B8
S2144016E0BD465DF8047B704700093D0000127A0055
S2144016F0001BB70080B500AF0620034B9847034653
S2144017001B01184680BD00BF8116400080B500AF63
S214401710024B984703465B08184680BDF5164000C6
S21440172080B58EB000AF0346FB71294B984778636F
S2144017307B6B022B3CD1274B9847254B9847386309
S214401740234B9847F8623B6B1A02FB6A1343BB6213
S21440175000237B62204B98470346DA1EBB6A9A42B8
S2144017600EDA0123BB610223FB6100233B6207F1D3
S21440177018031846194B9847194B984700BF24E062
S214401780184B194A1A60BB6A1AB2164B9A80154B08
S2144017901A68144BB3F9043019461046134B984751
S2144017A00F4B9847124B9847124B01221A700CE089
S2144017B00123FB6001233B617B6B7B6107F10C03DC
S2144017C01846064B9847064B98473837BD4680BD67
S2144017D0A1414000DD1E4000554540003116400006
S2144017E00D4540002C890020300A0020D54240009C
S2144017F0F11E4000B81D002080B582B000AF786072
S2144018007B681B681B78C42B62D0C42B11DCB02BC2
S2144018104ED0B02B06DCA02B2AD0A12B2CD0002BF0
S2144018201BD063E0BD2B5BD0C32B4ED0B12B42D038
S2144018305CE0E22B27D0E22B06DCE02B15D0E02B39
S2144018401EDCC52B3DD051E0E42B4CD0E42B35DBE1
S214401850E62B2AD0FD2B04D048E00020254B9847A5
S21440186044E07868244B984740E0244B98473DE056
S2144018707868234B984739E07868224B984735E09C
S214401880214B984732E0214B5B781A061F4B9B78DA
S2144018901B041A431D4BDB781B0213431B4A127969
S2144018A0134318461A4B984720E01A4B98471DE0BA
S2144018B0194B98471AE0194B984717E0184B98472A
S2144018C014E07868174B984710E0174B98470DE0A0
S2144018D07B681B6801331B781846144B984705E015
S2144018E0134B984702E0134B984700BF00BF08379A
S2144018F0BD4680BD151B4000211C40006D1B4000AE
S214401900811C4000A91A4000A11B4000300A00205C
S2144019104D144000A5144000F135400069364000A3
S2144019205D1D400079194000C1204000A52A4000B6
S214401930A50440003919400080B500AF0A4B00228C
S214401940DA70094B00229A70074B00221A70064B39
S214401950FF225A70054B01221A70054B9847E42027
S214401960044B984700BF80BD280A00202D0A00205F
S2144019700D454000151B4000B0B588B002AF7860FA
S2144019807B681B6801331B781B021AB27B681B6896
S21440199002331B781BB213431BB2FB827B681B6867
S2144019A0033318787B681B685C1D7B681A68FB8A63
S2144019B00533D5187B681A68F98AFB8A0B440533C9
S2144019C01A44FB8A009313462A462146174CA047E2
S2144019D07B681B68013318787B681B68591D7B68D9
S2144019E01A68FB8A053313441A46114B984702235C
S2144019F03B7400237B740323BB74C523FB74012311
S214401A003B750C4B1B68DBB2013BDBB27B7507F1C9
S214401A101003BB600623BB8107F108031846064B3C
S214401A20984700BF1837BD46B0BD00BFCD1F400029
S214401A30A5294000740100203D1A400080B586B0BC
S214401A4000AF7860134B1B78002B02D0012B1BD0C5
S214401A500DE0114B98477B681A687B68B3F90430F1
S214401A60194610460D4B98470D4B98470DE00123FD
S214401A70FB6005233B61074B1B787B6107F10C033A
S214401A801846084B984700E000BF00BF1837BD46D1
S214401A9080BD00BF280A0020051F4000E9444000E2
S214401AA0191F40003116400080B582B000AF786004
S214401AB0144B5B78002B02D0022B1AD01DE072B676
S214401AC0BFF35F8F104B00221A707B681B685A1C4E
S214401AD07B68B3F904309BB2013B9BB21946104673
S214401AE00A4B9847084B01221A70BFF35F8F62B6C5
S214401AF003E07868064B984700BF00BF0837BD46EE
S214401B0080BD00BF280A0020AA01002041344000C2
S214401B106127400080B586B000AF0346FB710223C4
S214401B203B7400237B740423BB74FB79FB740D4B1E
S214401B305B783B750B4B9B787B750A4B1B78BB756C
S214401B40084BDB78FB7507F11003BB600723BB81AE
S214401B5007F108031846044B984700BF1837BD46A0
S214401B6080BD00BF280A00203D1A400080B586B0E0
S214401B7000AF094A07F10C0307CA03C31A8007F1EE
S214401B800C037B600A233B813B1D1846034B98475A
S214401B9000BF1837BD4680BD54AC40003D1A4000DB
S214401BA080B58CB000AF1A4B9847F862FB6A002BA2
S214401BB00BD1E1237B600C23BB600023FB603B1D05
S214401BC01846144B984700BF1FE007F11803002241
S214401BD01A605A609A60DA601A6102233B761423D0
S214401BE0BB76E123FB7607F1180304331422F96A27
S214401BF01846094B984707F118033B611423BB82EC
S214401C0007F110031846054B98473037BD4680BD50
S214401C10D91340003116400035A640003D1A40001A
S214401C2080B586B000AF78607B681B6802331B784F
S214401C30002B02D0012B04D007E00E4B00221A7076
S214401C4010E00C4B01221A700CE0FD23FB600623CB
S214401C503B61084B1B787B6107F10C031846064B2B
S214401C60984700BFFD20054B984700BF1837BD4634
S214401C7080BD00BF280A002031164000151B4000DA
S214401C8090B587B000AF78607B681B6801331B78DF
S214401C90022B10D0FF2B24D0002B2DD1204B984761
S214401CA0204B9847204B9847204B00225A7020489C
S214401CB0204B98472DE01D4B02225A707B681B68CC
S214401CC002331C781C4B98470346194620461B4B4C
S214401CD098471B4B98471B4B98471B48154B9847B4
S214401CE017E01A4B9847104B9847104BFF225A70F4
S214401CF01748104B98470CE0A023FB6008233B6135
S214401D000A4B1B787B6107F10C031846114B98472A
S214401D1000BFA020104B984700BF1C37BD4690BD63
S214401D2055304000411F4000B91F4000280A00209F
S214401D3060AC40004B1340000D174000212540008A
S214401D40A51F4000551F400074AC400011314000B4
S214401D5088AC400031164000151B400080B483B06C
S214401D6000AF00BF0D4B9B6803F00103002BF9D07A
S214401D700B4B7B60094A7B68536000BF074B9B68F0
S214401D8003F00103002BF9D0064B074A1A6000BF48
S214401D900C37BD465DF8047B704700BF000A0E4016
S214401DA00C01005A00180E40050000A580B48BB008
S214401DB000AF78600B46FB707B687B62FB7887F8E9
S214401DC023307B6AFB61FB69BB61BB695B097B6156
S214401DD07B6903F5001303F207735B023B6197F8D8
S214401DE02330002B09D07B6AFB60FB6803F01F039F
S214401DF001229A403B691A6308E07B6ABB60BB6875
S214401E0003F01F0301229A403B695A6300BF2C37F8
S214401E10BD465DF8047B704780B48BB000AF7860F9
S214401E207B687B627B6A3B623B6AFB61FB695B0962
S214401E30BB61BB6903F5001303F207735B027B616A
S214401E407B6A3B613B6903F01F03012202FA03F3FE
S214401E50FB607B69DA6B7B6ABB60BB6803F01F0381
S214401E60012101FA03F31340002B03D07B69FA6883
S214401E705A6302E07B69FA681A6300BF2C37BD4696
S214401E805DF8047B7047000080B500AF012100205C
S214401E90114B984701216F200F4B984701217D2019
S214401EA00D4B9847002165200B4B98470121642035
S214401EB0094B984701216320074B984701216B2027
S214401EC0054B984701210120034B984701216A2082
S214401ED0014B984700BF80BDAD1D400080B500AFA8
S214401EE000217D20014B984700BF80BDAD1D4000BE
S214401EF080B500AF01217D20014B984700BF80BDD3
S214401F00AD1D400080B500AF00210020014B984732
S214401F1000BF80BDAD1D400080B500AF0121002050
S214401F20014B984700BF80BDAD1D400080B500AF57
S214401F3000216520014B984700BF80BDAD1D400085
S214401F4080B500AF00216A20014B984700BF80BD96
S214401F50AD1D400080B500AF01216A20014B984777
S214401F6000BF80BDAD1D400080B500AF6B20024B6A
S214401F70984700BF80BD00BF191E400080B500AF27
S214401F8001210120014B984700BF80BDAD1D400098
S214401F9080B500AF01216B20014B984700BF80BD44
S214401FA0AD1D400080B500AF00210120014B984791
S214401FB000BF80BDAD1D400080B500AF01210120AF
S214401FC0014B984700BF80BDAD1D4000B0B58CB0FA
S214401FD000AFB9607A603B600346FB73334B1B78B7
S214401FE00133FE2B0CDD01233B6110237B61002374
S214401FF0BB6107F1100318462D4B984700BF51E0D0
S214402000FB7B3B77B7F84030FB83B7F84030184649
S214402010284B984703463B62B7F840301846254B56
S214402020984703467B62B7F840301846214B98479E
S2144020300346BB623B6A002B05D07B6A002B02D06E
S214402040BB6A002B01D100232CE0184B1B78FB62A7
S2144020503B6AB7F84020B9681846174B98477B6AE2
S214402060B7F8402079681846134B9847BB6AB7F8CC
S214402070402039681846104B98470C4B1B785A1C22
S214402080D1B20A4A117019460C4A0B469B000B44C3
S2144020909B0013441D4607F11C040FCC0FC5236854
S2144020A02B60012318463037BD46B0BD7001002076
S2144020B031164000B5A0400035A64000BC1D0020AB
S2144020C080B586B000AF00237B6144E038497A692A
S2144020D013469B0013449B000B44043300221A60B3
S2144020E033497A6913469B0013449B000B440833DC
S2144020F000221A602E497A6913469B0013449B00BF
S2144021000B440C3300221A6029497A6913469B0017
S21440211013449B000B4404331B681846254B9847D2
S21440212023497A6913469B0013449B000B440833AB
S2144021301B6818461F4B98471D497A6913469B00F3
S21440214013449B000B440C331B681846194B9847A6
S2144021507B6901337B61184B1B781A467B699A4230
S214402160B4DC154B00221A70144B01221A604FF053
S214402170FF311348134B984713491148134B984760
S2144021800F48134B9847134A07F10C0392E8030095
S21440219018600433197007F10C037B6005233B81FC
S2144021A03B1D18460C4B984700BF1837BD4680BDB0
S2144021B0BC1D0020C5A04000700100207401002016
S2144021C000000140AD0E400000000F10910E400090
S2144021D02D1240009CAC40003D1A400080B588B0AF
S2144021E000AFF8607A603B600B467B81404B1B78C3
S2144021F083F00103DBB2002B04D03E483E4B9847A9
S214402200012370E03D483C4B98470023FB6163E068
S2144022103B49FA6913469B0013449B000B44023328
S2144022201B887A899A4253D30023BB6129E0BB6955
S214402230FA6813441B78FB753149FA6913469B00CC
S21440224013449B000B4404331A68BB6913441B7841
S214402250BB752B49FA6913469B0013449B000B44FD
S21440226008331A68BB6913441B787B75FA7DBB7DBF
S21440227013403B753A7D7B7D9A4227D1BB6901333B
S214402280BB611F49FA6913469B0013449B000B44ED
S21440229002331B881A46BB699A42C8DC1849FA6959
S2144022A013469B0013449B000B440C331A687B6810
S2144022B01A607B89DAB23B681A701149FA6913468C
S2144022C09B0013449B000B441B780CE000BF00E0CF
S2144022D000BFFB690133FB610A4B1B781A46FB695A
S2144022E09A4295DC002318462037BD4680BD00BF85
S2144022F094310020A4AC40004B134000B8AC4000E2
S214402300BC1D00207001002080B483B000AF03469F
S214402310FB71094997F907305B09FA7902F01F0209
S214402320012000FA02F241F8232000BF0C37BD46D8
S2144023305DF8047B704700BF00E100E080B483B0E6
S21440234000AF0346FB71094997F907305B09FA79F4
S21440235002F01F02012000FA02F2203341F8232047
S21440236000BF0C37BD465DF8047B704700E100E0D7
S21440237080B483B000AF0346FB71094997F9073034
S2144023805B09FA7902F01F02012000FA02F260337C
S21440239041F8232000BF0C37BD465DF8047B7047EC
S2144023A000E100E080B483B000AF03463960FB71C3
S2144023B097F90730002B0BDA0D49FB7903F00F0332
S2144023C0043B3A68D2B21201D2B20B441A7609E004
S2144023D0084997F907303A68D2B21201D2B20B4494
S2144023E083F8002300BF0C37BD465DF8047B70477A
S2144023F000ED00E000E100E080B483B000AF78601C
S2144024007B68072B25D801A252F823F02D244000E4
S21440241033244000392440003F24400043244000F9
S214402420472440004B2440004F2440004FF4FA43DA
S21440243010E04FF400430DE04FF400430AE0084B31
S21440244008E0084B06E0084B04E0074B02E0064B6A
S21440245000E0002318460C37BD465DF8047B704705
S21440246000093D0000127A00001BB70080B500AF9F
S2144024700620034B984703461B01184680BD00BF05
S214402480F923400080B500AF024B984703465B08EF
S214402490184680BD6D24400080B582B000AF78609D
S2144024A07868034B984700BF0837BD4680BD00BFDD
S2144024B03D82400080B48BB000AF78600B46FB7026
S2144024C07B687B62FB7887F823307B6AFB61FB691D
S2144024D0BB61BB695B097B617B6903F5001303F253
S2144024E007735B023B6197F82330002B09D07B6A69
S2144024F0FB60FB6803F01F0301229A403B691A63A6
S21440250008E07B6ABB60BB6803F01F0301229A4069
S2144025103B695A6300BF2C37BD465DF8047B704765
S214402520B0B58CB002AF0346B961FB7700237B623F
S214402530FB7F082B78D801A252F823F06125400093
S2144025406925400071254000792540007F254000E0
S214402550852540008B25400091254000972540006A
S2144025604FF47A737B6219E04FF448737B6215E050
S2144025704FF4FA737B6211E0FA237B620EE07D2310
S2144025807B620BE032237B6208E019237B6205E026
S2144025900A237B6202E005237B6200BF2520244B92
S2144025A098477A6AB9692348234B9847214A214B72
S2144025B05B6943F080735361204B98470021742039
S2144025C01F4B984701210B201D4B984718201D4B49
S2144025D0984700211C481D4B984744F203020021AF
S2144025E019481B4B98471B4912481B4B98471B4D95
S2144025F038461B4B00931B4B1B4A00211B4CA047E5
S2144026003C460FCC0FC523682B60194D3846194BF6
S21440261000221249184CA0473C460FCC0FC594E800
S214402620030085E8030000E000BF2837BD46B0BD84
S2144026303D82400000000140D50D4000512840003A
S214402640B5244000992440000040094079154000D8
S2144026500115400000000F10910E40003889002000
S21440266081264000E52C400095284000098840001F
S2144026704C890020E92D40004788400000000000BB
S214402680F0B583B000AF78607B68002B38D07B68AD
S2144026901D464FF000062A4B984703464FF000046D
S2144026A003FB06F105FB04F20A44A5FB030153189D
S2144026B01946244C4FF006024FF00003A04703464D
S2144026C00C461946224640F2E7334FF000045B18AA
S2144026D044EB02041C4A1846214690471B4C4FF0D8
S2144026E000021B4BA04703460C4619462246194B90
S2144026F008461146984703461846174B984716E033
S2144027000F4B984703464FF000040BA2D2E9001245
S2144027105D1844EB0206284631460A4C0F4A4FF0F5
S2144027200003A04703460C4618460B4B984700BF8D
S2144027300C37BD46F0BD00BF7F9FD50000000000AF
S21440274085244000559D400085984000459B4000AC
S21440275000408F40159D400001000020809FD5001E
S21440276090B58DB004AFF861FB691B6801331B78E8
S214402770002B02D0012B11D05DE0FB691B680233B1
S2144027801878FB691B68D91CFB69B3F90430DBB2C7
S214402790033BDBB21A462A4B98474CE0FB691B6862
S2144027A002331B78002B20D1FB691B6805331B784E
S2144027B01B021AB2FB691B6806331B781BB2134315
S2144027C01BB299B2FB691B685C1DFB69B3F9043008
S2144027D09BB2053B9BB238460022019200932346AB
S2144027E00A461849184CA04724E0FB691B68063384
S2144027F01B781B021AB2FB691B6807331B781BB297
S21440280013431BB299B2FB691B689C1DFB69B3F965
S21440281004309BB2063B9BB2FA69126803321278C8
S2144028203846029200220192009323460A46054902
S214402830064CA04700BF00BF2437BD4690BD00BF32
S2144028409528400038890020518F4000B58F4000C1
S21440285080B500AF002117200D4B984700210D2072
S2144028600B4B984701210E20094B984701217920B0
S214402870074B984701217920054B98470121742042
S214402880034B984701210B20014B984700BF80BD62
S214402890B524400080B586B000AF03463960FB7172
S2144028A01346BB7100237B6100233B61364B1B699B
S2144028B0FB60BB79043B082B5FDC3B681B781A0641
S2144028C03B6801331B781B041A433B6802331B7872
S2144028D01B0213433A680332127813433B612B487A
S2144028E02B4B9847294B00221A60284B03221A711B
S2144028F03B699A04274B13403A69120C1343234A08
S2144029001361FB79002B05D0204B1B6943F0005325
S2144029101E4A13611D4B0222DA711C4B00225A716B
S2144029201A4B0022DA60194B08229A71174916484A
S214402930194B98473B6804331B681A46134B9A61F9
S2144029403B6808331B681A46104BDA610F490E483D
S214402950124B984778610023BB603B6804331B7872
S214402960002B02D1BB680133BB607B69002B06D1CC
S214402970012105480A4B984702E000BF00E000BF2F
S21440298018461837BD4680BD0000014098310020EB
S214402990152B40000000FC1F6B0F400075114000D7
S2144029A0E10E400080B584B000AF0346B9607A605F
S2144029B0FB733348334B9847334B1B68304A13609E
S2144029C02F4B01221A717B6802331B781B027A68F0
S2144029D00332127813439B041A462C4B13407A68F2
S2144029E0127812027968013109780A43C2F311025B
S2144029F01343234A1361BB6802331B781B02BA6831
S214402A000332127813439B041A46204B1340BA688D
S214402A1012781202B968013109780A43C2F31102EA
S214402A201343174AD360FB7B002B0BD0144B1B6918
S214402A3043F00053124A1361114BDB6843F00053D6
S214402A400F4AD3600E491248124B98470E4B1B68EC
S214402A505A1C0D490A60012202FA03F319460C4833
S214402A600D4B984725200D4B9847072125200C4BAA
S214402A7098470348034B984700BF1037BD4680BD74
S214402A80B8310020152B4000740100200000FC1FC8
S214402A90000001406B0F4000910E400009234000AB
S214402AA0A523400080B582B000AF0346FB71FB799A
S214402AB0124A1360114B00221A7110491048114BEC
S214402AC09847114B1B68012202FA03F319460C483B
S214402AD00E4B984709480E4B98470B4B1B68013BDB
S214402AE0094A1360084B1B68002B02D1064B012293
S214402AF01A6000BF0837BD4680BD00BFB831002011
S214402B00000001406B0F400074010020AD0E4000F5
S214402B10152B400080B483B000AF78607B680022FD
S214402B201A607B6800221A717B6800225A717B68A3
S214402B3000229A717B680022DA717B6800229A60D4
S214402B407B680022DA607B6800221A617B6800227C
S214402B505A617B6800229A617B680022DA6100BF76
S214402B600C37BD465DF8047B7047000080B584B0E6
S214402B7000AF00210D480E4B9847034603F0100364
S214402B80102B0FD118200B4B98470B4B1B689847C0
S214402B9003237B600F23BB600023FB603B1D18466E
S214402BA0064B984700BF1037BD4680BD00400940E1
S214402BB00B16400071234000348900203116400037
S214402BC080B58EB000AF404B1A69404B13403B6314
S214402BD03B6B002B05D03C4B1B69FB623A4B0122FA
S214402BE01A60012387F8373066E0374A97F837305F
S214402BF05B01134403F504731B6803F40003BB62D4
S214402C00BB6AB3F5000F52D197F83730304A13609D
S214402C102F492D482F4B98472D4B1B699B0CC3F3D0
S214402C200A022B4B5B6913437B627B6A1B0EDBB24B
S214402C303B777B6A1B0CDBB27B777B6A1B0ADBB27B
S214402C40BB777B6ADBB2FB7702233B7200237B7247
S214402C500E23BB72AA23FB7202233B733B7F7B731C
S214402C607B7FBB73BB7FFB73FB7F3B74AA237B746A
S214402C70AA23BB74AA23FB74AA233B75AA237B759D
S214402C80AA23BB75AA23FB75AA233B7607F1080344
S214402C900933082210491846104B984707F1080395
S214402CA03B601123BB803B4618460D4B984797F830
S214402CB03730013387F8373097F83730072B94D9B9
S214402CC000BF3837BD4680BD0000014000000F10F1
S214402CD0B831002091104000D031002035A6400089
S214402CE03D1A400090B583B000AF03463A60FB8083
S214402CF00B467B717B79002B08D000212B482C4B50
S214402D00984718202B4B984701234AE0FB884FF002
S214402D100004294A02FB04F1002202FB03F20A44A3
S214402D202549A3FB010153181946244C4FF00602CF
S214402D304FF00003A04703460C461946224640F291
S214402D40E7334FF000045B1844EB02041C4A184675
S214402D50214690471B4C4FF000021B4BA0470346B2
S214402D600C4619462246194B0846114698470346D4
S214402D701A4600210D48164B9847102200210B4852
S214402D80144B98471820144B984700211820134B93
S214402D90984700210548124B9847124A3B681360F3
S214402DA0012318460C37BD4690BD00BF0040094081
S214402DB0791540003D23400000D8B805559D400099
S214402DC085984000459B400000408F40159D400040
S214402DD0BD154000E315400009234000A5234000F0
S214402DE0571540003489002080B586B000AF786023
S214402DF07B681B681B0EDBB23B727B681B681B0C38
S214402E00DBB27B727B681B681B0ADBB2BB727B68DB
S214402E101B68DBB2FB727B68DB6802221A707B6839
S214402E20DB6801337A681289033A1212D2B21A70FA
S214402E307B68DB6802337A681289D2B2033AD2B230
S214402E401A707B68DB680333AA221A707B68DB68DB
S214402E50043303221A707B68DB6805333A7A1A70AB
S214402E607B68DB6806337A7A1A707B68DB680733E0
S214402E70BA7A1A707B68DB680833FA7A1A707B680D
S214402E80DB683B617B681B891BB2BB8207F1100382
S214402E901846034B984700BF1837BD4680BD00BF55
S214402EA03D1A400080B483B000AF0346FB71094929
S214402EB097F907305B09FA7902F01F02012000FA01
S214402EC002F241F8232000BF0C37BD465DF8047B74
S214402ED0704700BF00E100E080B483B000AF034617
S214402EE0FB71094997F907305B09FA7902F01F022E
S214402EF0012000FA02F2203341F8232000BF0C37AD
S214402F00BD465DF8047B704700E100E080B483B0C6
S214402F1000AF03463960FB7197F90730002B0BDA98
S214402F200D49FB7903F00F03043B3A68D2B2120115
S214402F30D2B20B441A7609E0084997F907303A6846
S214402F40D2B21201D2B20B4483F8002300BF0C3732
S214402F50BD465DF8047B704700ED00E000E100E010
S214402F6080B582B000AF78607868034B984700BF62
S214402F700837BD4680BD00BF3D82400080B582B068
S214402F8000AF78607868034B984700BF0837BD4667
S214402F9080BD00BFC182400080B48BB000AF786077
S214402FA00B46FB707B687B62FB7887F823307B6A36
S214402FB0FB61FB69BB61BB695B097B617B6903F5B0
S214402FC0001303F207735B023B6197F82330002B34
S214402FD009D07B6AFB60FB6803F01F0301229A401E
S214402FE03B691A6308E07B6ABB60BB6803F01F035B
S214402FF001229A403B695A6300BF2C37BD465DF8B4
S214403000047B704780B489B000AF78607B68FB6112
S214403010FB69BB61BB697B617B695B093B613B6963
S21440302003F5001303F207735B02DA6BFB69FB6080
S214403030FB6803F01F03012101FA03F31340002B42
S21440304014BF01230023DBB218462437BD465DF883
S214403050047B704790B583B002AF15201D4B984750
S21440306016201C4B984709201A4B984700224FF4CD
S21440307080311948194B9847194B009350234FF409
S214403080803209211448174CA0474FF4803112482B
S214403090154B984701211548154B984701220121A9
S2144030A01248144B984701211048134B9847092063
S2144030B0124B984705210920114B984700210F20B5
S2144030C0104B9847104B9847104B984700BF043713
S2144030D0BD4690BD612F4000000E0E408D744000EE
S2144030E04D314000D5514000797540000000094000
S2144030F0791540000115400057154000A52E4000A8
S2144031000D2F4000992F4000F1354000E136400039
S21440311080B500AF4FF480310848094B98470920E6
S214403120084B98471520084B98471620064B98475B
S2144031300920054B984700BF80BD00BF000E0E40DB
S21440314095754000D92E40007D2F400080B582B056
S21440315000AF786039607B68092B14D13B68B3F5C3
S214403160803F10D172B6BFF35F8F094B00221A70B2
S21440317041F288310748084B9847054B01221A70A0
S214403180BFF35F8F62B600BF0837BD4680BD00BF45
S214403190AA010020D83100209D31400090B593B060
S2144031A000AF786039600023BB6300237B64002354
S2144031B087F84330002387F8423000237B637B68E0
S2144031C03B637B6805337B6001219348934B98476C
S2144031D019E001219048924B98470146914B1B6855
S2144031E040F62832B2FBF3F399420CD9AA23BB61CE
S2144031F00323FB6100233B6207F1180318468A4B02
S214403200984700BF04E11020884B9847034683F058
S2144032100103DBB2002BDCD101217F48804B98476D
S214403220B863804B1B684FF4D262B2FBF3F2BB6BC1
S2144032309A4280F0EA8086E0002387F843300723EE
S214403240FB6374E01020794B984703467B6301216B
S2144032507148724B98470CE001216F48704B984775
S2144032600146704B1B684FF40162B2FBF3F3994280
S2144032706FD810206D4B984703461A467B6B9A4290
S214403280EAD001216448664B9847B863654B1B6893
S2144032900022B2FBF3F2BB6B9A420CD8614B1B6820
S2144032A04FF49662B2FBF3F2BB6B9A4203D3012310
S2144032B087F8423020E05B4B1B6840F2BC42B2FBD2
S2144032C0F3F2BB6B9A420CD8564B1B6841F27072B5
S2144032D0B2FBF3F2BB6B9A4203D3002387F842302B
S2144032E00AE0AA23FB6007233B6100237B6107F1CA
S2144032F00C0318464C4B98477B6B002B08D097F82E
S2144033004230002B0CBF01230023DBB287F842304B
S21440331097F84220FB6B02FA03F35AB297F9433010
S21440332013435BB287F84330FB6B013BFB63FB6B9D
S214403330002B87DA7B685A1C7A6097F843201A700D
S2144033407B6C01337B647A6C3B689A42FFF474AFC3
S21440335000E000BF3B6B7B607B6C04337A681344B1
S2144033601B7887F82F307B685A1D7B6C013B1946CB
S21440337010462F4B9847034687F82E307B6C043315
S2144033807A6813441C787B685A1D7B6C013B19464F
S2144033901046274B984703469C4238D1254B9847C2
S2144033A07B68181D7B6C99B200230022224CA047F4
S2144033B00346002B2CD07B6C01337B647B6C013343
S2144033C07B647B6802221A707B6801337A6C120A2F
S2144033D0D2B21A707B6802337A6CD2B21A707B68AB
S2144033E00333AA221A707B68043301221A707B6C5E
S2144033F003337B643B6B7B627B6C1BB23B8507F184
S214403400240318460D4B984702E000BF00E000BF7B
S2144034104C37BD4690BD00BF0000094057154000E0
S2144034209B154000780100203116400005304000D2
S214403430493740007D1F4000DD2140003D1A4000D6
S21440344080B584B000AF78600B467B804FF4803107
S2144034505A485B4B984700215A485B4B9847002197
S21440346058485A4B98477B8819467868584B98472F
S2144034700346BB737B887A681344BA7B1A707B8892
S21440348001337B804F48534B984701210F20524BC6
S214403490984700BF00214B48504B98470346B3F52A
S2144034A0166FF7D366E04E4B98477B88013B7B8090
S2144034B07B685A1C7A601B787B730823FB73012356
S2144034C03B7354E0FB7B013BFB73FB7B03F0010348
S2144034D0002B2BD000210F203F4B984739483D4BBF
S2144034E098477A7B397BFB7B01FA03F31A40FB7BD8
S2144034F042FA03F3002B02D04FF4C06301E04FF4CE
S2144035004073BB6009E00F20364B98470346002BBC
S21440351003D0354B984700234CE0002129482F4BD9
S21440352098470246BB689A42EDD920E001210F2019
S214403530294B98472348274B98477A7B397BFB7B18
S21440354001FA03F31A40FB7B42FA03F3002B02D046
S2144035504FF4407301E04FF4C063BB6000BF0021EE
S21440356018481E4B98470246BB689A42F7D9FB7BE1
S214403570002BA7D17B88002B95D100210F20164B1E
S21440358098471048134B984700BF00210D48134BEF
S2144035909847024640F68B239A42F6D900210948BE
S2144035A0094B98474FF480310448104B98470E4BD0
S2144035B09847012318461037BD4680BD000E0E4082
S2144035C095754000000009407915400057154000A9
S2144035D0493740003B154000992F40009B1540005E
S2144035E0691F400005304000911F4000797540003B
S2144035F080B584B000AF00211348144B9847012291
S21440360000211148124B984700210F48114B98470C
S214403610114B00221A70114B01221A60104A07F112
S214403620080392E8030018600433197007F1080392
S2144036303B600523BB803B4618460A4B984700BF75
S2144036401037BD4680BD00BF0000094079154000D8
S21440365001154000571540006046002078010020C4
S214403660C8AC40003D1A400080B584B000AF002191
S2144036701348144B9847002200211148124B984794
S21440368000210F48114B9847114B01221A70114BDD
S21440369004221A60104A07F1080392E803001860F3
S2144036A00433197007F108033B600523BB803B4693
S2144036B018460A4B984700BF1037BD4680BD00BF2E
S2144036C0000009407915400001154000571540009C
S2144036D06046002078010020D0AC40003D1A4000F3
S2144036E080B485B000AF0023BB6021E0BB68FB73AD
S2144036F00823FB7111E097F90F30002B07DAFB7BAC
S2144037005B005BB283F01D035BB2FB7302E0FB7BA6
S2144037105B00FB73FB79013BFB71FB79002BEAD125
S214403720084ABB681344FA7B1A70BB680133BB6017
S214403730BB68FF2BDADD00BF1437BD465DF8047B5F
S214403740704700BF6045002080B487B000AF786007
S2144037503960FF23FB7500233B6113E03B697A68C1
S21440376013441A78FB7D5340FB73FB7B0C4AD35CB7
S2144037705AB2FB7D1B025BB253405BB2FB753B69A2
S21440378001333B613A693B689A42E7DBFB7DDB43AA
S214403790DBB218461C37BD465DF8047B704700BF59
S2144037A06045002080B483B000AFEFF310837B60A9
S2144037B07B68002B0CBF01230023DBB23B6072B654
S2144037C0BFF35F8F044B00221A703B6818460C37D5
S2144037D0BD465DF8047B7047AA01002080B483B0E4
S2144037E000AF78607B68002B14BF01230023DBB258
S2144037F018460C37BD465DF8047B704780B582B0EE
S21440380000AF78607868074B98470346002B05D092
S214403810054B01221A70BFF35F8F62B600BF0837B0
S214403820BD4680BDDD374000AA01002080B483B08D
S21440383000AF0023BB71444B00221A70BB79434A49
S214403840002122F81310BA79414913469B001344CD
S2144038505B000B44A1221A70BA793D4913469B007F
S21440386013445B000B44013320221A70BA7938495E
S21440387013469B0013445B000B44023300221A801D
S214403880BB79002B02D10023FB7102E00023FB71C1
S21440389000BFBA79FB7998B22D4913469B00134472
S2144038A05B000B44043302461A80BA792849134613
S2144038B09B0013445B000B44063302221A80BA79FD
S2144038C0234913469B0013445B000B4408330022F5
S2144038D01A80BA791F491346DB009B1A0B44002214
S2144038E01A70002262F03D025A70002242F0010235
S2144038F09A700022DA70BA7916491346DB009B1A92
S2144039000B44043300221A70BA7912491346DB007E
S2144039109B1A0B44053300221A70BA790D49134698
S214403920DB009B1A0B44063308221A70064B1B78A2
S214403930DBB20133DAB2044B1A70012318460C3757
S214403940BD465DF8047B70477A4600206C460020F2
S214403950704600206446002080B582B000AF002349
S214403960FB712D4B00221A70FB792C4A0021D15452
S214403970FB792B4A0021D154FB792A4A0021D154A5
S214403980FB79294A002122F82310FB79264A9B001E
S214403990134400225A80FB79244A002122F813104F
S2144039A0FB791846224B9847FB79224A0021D1548E
S2144039B0FB79214A0021D154FB79204A002122F884
S2144039C02310FB791D4A9B00134400225A80FB7942
S2144039D01B4A002122F81310FB791846194B9847CA
S2144039E0034683F00103DBB2002B01D000230FE037
S2144039F0094B1B78DBB20133DAB2074B1A70064B21
S214403A001B78DBB2012B02D10F4B01221A70012327
S214403A1018460837BD4680BD7B4600209C87002060
S214403A20A087002094870020908700209887002059
S214403A302D3E40000C6700200467002000670020F1
S214403A4008670020E93B40007C46002080B400AF79
S214403A50054B1B78DBB2013BDAB2034B1A7000BF52
S214403A60BD465DF8047B70477A46002080B483B03C
S214403A7000AF094B1B78DBB2013BDAB2064B1A703B
S214403A80054B1B78FB71054B00221A7000BF0C37A4
S214403A90BD465DF8047B70477B4600207C46002090
S214403AA080B582B000AF2A4B98470346FB71294B3E
S214403AB01B785BB2002B1CDA264B1B7803F06003A6
S214403AC0202B16D1234B5B78212B12D1214BDB8840
S214403AD0072B01D0002337E0FA791346DB009B1A08
S214403AE01D4A13441B4A93601A4B07229A810123AE
S214403AF02AE0184B1B785BB2002B24DB154B1B7857
S214403B0003F06003202B1ED1124B5B78202B02D093
S214403B10222B16D017E00F4BDB88072B01D0002353
S214403B2012E00C4B0D4A1A61FA791346DB009B1AD9
S214403B30094A1344074A9360064B07229A81012399
S214403B4002E0012300E0002318460837BD4680BD4A
S214403B509D3B40006C89002064460020CD3B4000E1
S214403B6080B400AF00231846BD465DF8047B70471E
S214403B7080B400AF00231846BD465DF8047B70470E
S214403B8080B500AF034B1B781846034B984700BFE1
S214403B9080BD00BFA18700202D3E400080B483B08A
S214403BA000AF094B9B88DBB2002B02D10023FB7190
S214403BB002E00023FB7100BFFB7918460C37BD4678
S214403BC05DF8047B704700BF6C89002080B582B0EA
S214403BD000AF044B98470346FB7100BF0837BD460D
S214403BE080BD00BF9D3B400090B589B002AF034604
S214403BF0FB710023FB71334B98473861FB79324A9F
S214403C00D35CFB73FB79314AD35CDBB2002B0ED11D
S214403C10FB792F4A32F813309AB2F979FB7B2D485C
S214403C2049000B4430F813309BB29A4204D23869AC
S214403C30294B9847002340E0FB79254A002122F88B
S214403C401310FB79FA7B002A0CBF01220022D2B265
S214403C5011461D4AD154FB791C4A0121D15438697A
S214403C601D4B9847FB7918461C4B98470346002B3C
S214403C7003D0FB7918461A4B9847FB79002B02D1A4
S214403C800223FB7502E00223FB7500BFF979FB7B3C
S214403C901A4692011A4493011A460B469B010B445E
S214403CA0DB0113440F4A1A44F87D0F4B00934FF440
S214403CB0825301210D4CA047034618461C37BD468B
S214403CC090BD00BFA5374000046700200C67002069
S214403CD00867002000670020FD3740007540400020
S214403CE02117400080460020F13C40005D5D4000CA
S214403CF090B587B002AF03463960FB711346BB717F
S214403D00BB79022B02D10023FB7302E00023FB7336
S214403D1000BFFB79002B36D1FB7B1D4AD35CDBB260
S214403D20002B0CBF01230023DBB2BB733B68002B88
S214403D3016D1F97BBB7B1A4692011A4493011A4668
S214403D400B469B010B44DB011344124A1A44B879D4
S214403D50114B00934FF482530121104CA04713E0BF
S214403D60FA7BBB7B396888B20D4952001344024641
S214403D7021F81320FB7B0B4A0021D154FB7B1846CD
S214403D80094B984700E000BF1437BD4690BD00BFC2
S214403D900467002080460020F13C40005D5D400006
S214403DA0006700200C670020E93B400080B584B0E7
S214403DB000AF03463960FB711346BB71BB79812B5C
S214403DC002D10023FB7302E00023FB7300BFFB79A4
S214403DD0002B1DD1FB7BFA7B0F498A5CD2B2002AAE
S214403DE00CBF01220022D2B211460C4A5B000B44A3
S214403DF0002122F81310FB7B094A0021D154FB7B9B
S214403E00084A0021D154FB7B1846074B984700E0F0
S214403E1000BF1037BD4680BD9487002090870020A5
S214403E20A08700209C8700202D3E400090B589B09A
S214403E3002AF0346FB710023FB71FB79664AD35CF5
S214403E40DBB2002B40F0C280644B98470346002B01
S214403E5009D0FB79624A32F81340624B98470346D2
S214403E609C420AD1B5E0FB795D4A32F813405E4B7E
S214403E70984703469C4200F0AB805C4B98473861BD
S214403E80FB795B4AD35CFB75FA79FB7D5949520056
S214403E90134431F81330002B1FD1574B1B88013386
S214403EA09AB2554B1A804D4B9847034683F0010310
S214403EB0DBB2002B03D0504B1B88632B09D9474BF2
S214403EC098470346002B08D04B4B1B88B3F5487FDA
S214403ED003D23869494B98477BE0474B00221A800B
S214403EE0FB79474AD35CDBB283F00103DBB2002B9D
S214403EF00AD0FB79FA7D002A0CBF01220022D2B2FA
S214403F0011463B4AD15406E0FB7D002B0CBF0123F3
S214403F100023DBB2FB75FB792F4A0121D154386967
S214403F20364B9847FA79FB7D32495200134431F8B4
S214403F301330B3F5825F14BF01230023FB73FB7B72
S214403F40002B16D0254B98470346002B08D0FC790B
S214403F50244B984703461A46214B23F814200DE07D
S214403F60FC79214B984703461A461D4B23F81420EC
S214403F7004E0FB791A4A002122F81310FB79002B43
S214403F8002D18123BB7502E08123BB7500BFF9795E
S214403F90FB7D1A4692011A4493011A460B469B0132
S214403FA00B44DB011344174A9C18FA79FB7D1149F0
S214403FB05200134431F813301A46F97BB87D124B41
S214403FC0009313462246114CA04702E000BF00E093
S214403FD000BF1C37BD4690BD9C8700209D574000C3
S214403FE0988700206158400041584000A53740005F
S214403FF09487002090870020A2870020FD3740004D
S214404000A087002010670020AD3D40005D5D400069
S21440401080B586B000AF0346FB710023FB71104BA2
S21440402098477861FB790F4A32F813307B82FB79E8
S214404030FA790D498A5CD2B211460C4A5B000B44B1
S21440404032F813309BB21A467B8AD31AFB607869E3
S214404050074B9847FB6818461837BD4680BD00BFDB
S214404060A53740000867002004670020006700204E
S214404070FD37400080B582B000AF0346FB71FB7948
S2144040801846064B98470346002B14BF01230023CF
S214404090DBB218460837BD4680BD00BF1140400021
S2144040A090B587B000AF0346FB7100237B610023C9
S2144040B0FB71FA7931491346DB009B1A0B440633F1
S2144040C01B78092B0CBF01230023FB742C4B98470D
S2144040D0F860FB792B4A32F813307B81FB792A4A09
S2144040E0D35C7B72FA797B7A28495200134431F8C4
S2144040F013309BB27A899A422CBF012300233B722D
S214404100F868234B98473B7A002B09D0214B1B7805
S214404110DBB283F00103DBB2002BD7D0002329E0CB
S214404120F9797B7A78891C4C1A4692011A44930195
S2144041301A460B469B010B44DB01134423440344BD
S2144041401B781A467B6913437B61FB797A89013277
S21440415091B20C4A22F81310FB7918460F4B984739
S214404160FB7C002B05D00023FB747B691B027B6124
S214404170ACE77B6918461C37BD4690BD64460020B8
S214404180A53740000867002004670020006700202D
S214404190FD3740007C46002080460020E93B40003A
S2144041A080B500AF0020024B98470346184680BDB6
S2144041B0A140400080B588B000AF0346B9607A6041
S2144041C0FB73BB68FB610023FB73394B98477861F0
S2144041D0FB7B384A32F813307B82FB7B364AD35C13
S2144041E07B74FA7B7B7C35495200134431F813309C
S2144041F09BB27A8A9A422CBF012300233B7478698B
S2144042002F4B98473B7C002B09D02E4B1B78DBB2BC
S21440421083F00103DBB2002BD7D07B6844E0FA7B07
S2144042207B7C26495200134431F813309BB21A4621
S2144042307B8AD31ABB61BA697B689A4201D97B688C
S214404240BB61F97B7B7C788A1A4692011A449301BB
S2144042501A460B469B010B44DB01134403441A4A9F
S2144042601344BA691946F869184B9847FB7BFA7BA2
S214404270104931F8122091B2BA6992B20A4491B20A
S2144042800C4A22F81310FA69BB691344FB617A683A
S214404290BB69D31A7B60FB7B18460D4B98477B68FF
S2144042A0002B00D091E7002318462037BD4680BD3E
S2144042B0A5374000086700200467002000670020FC
S2144042C0FD3740007C4600208046002035A6400052
S2144042D0E93B400080B582B000AF786039603A680C
S2144042E079680020034B9847034618460837BD4672
S2144042F080BD00BFB541400080B586B000AF0346E4
S214404300FB710023FB71204B98473861FB791F4AAD
S214404310D35CFB73FA79FB7B1D495200134431F89A
S21440432013307B617B69B3F5825F21D1FB79194AF3
S214404330D35CDBB283F00103DBB2002B18D0FB79F1
S214404340154AD35CDBB283F00103DBB2002B0FD0FF
S214404350FB79114A0121D154FB79FA7B002A0CBF24
S21440436001220022D2B21146084AD15400237B6172
S2144043707B69C3F58253BB603869084B9847BB6876
S21440438018461837BD4680BDA537400094870020A4
S214404390908700209C870020A0870020FD374000A3
S2144043A080B582B000AF0346FB71FB791846064BDA
S2144043B098470346002B14BF01230023DBB2184660
S2144043C00837BD4680BD00BFF942400080B588B082
S2144043D000AF0346B9607A60FB73BB68BB610023DD
S2144043E0FB73FA7B37491346DB009B1A0B440633B4
S2144043F01B78092B02D17B685B007B60FB7B1846F1
S214404400314B9847034683F00103DBB2002B09D0BB
S2144044102E4B1B78DBB283F00103DBB2002BEDD0D2
S2144044207B684AE02A4B98477861FB7B294AD35CF5
S214404430FB74FA7BFB7C28495200134431F8133056
S2144044403B823B8AC3F58253FB61FA697B689A429A
S21440445001D97B68FB61F97BFB7C388A1A4692015E
S2144044601A4493011A460B469B010B44DB01134446
S21440447003441A4A1344FA69B9691846184B9847D0
S214404480FA7BFB7CF96988B2398A014488B21249C2
S21440449052001344024621F813207869114B98477E
S2144044A0BA69FB691344BB617A68FB69D31A7B60BF
S2144044B07B68002B00D0A1E7002318462037BD4676
S2144044C080BD00BF64460020A14340007C460020DB
S2144044D0A537400094870020908700201067002072
S2144044E035A64000FD37400080B582B000AF78600A
S2144044F039603A6879680020034B98470346184667
S2144045000837BD4680BD00BFCD43400080B500AFF4
S2144045100B4B00221A800A4B00225A80094B00227D
S2144045201A804FF4825200210748084B98474FF4B0
S214404530825200210648054B984700BF80BD00BF09
S21440454000670020086700208046002069A74000DA
S214404550C056002080B400AF064B1B78DBB21A462C
S214404560054B33F812309BB21846BD465DF8047BC7
S214404570704700BF046700200067002080B400AF8B
S214404580064B1B681B68054A12681268528892B22E
S21440459013441846BD465DF8047B7047B08700203C
S2144045A080B584B000AF78600B46FB70124B9847DE
S2144045B0F8607B681B781A467B6813447B6010E083
S2144045C07B685B78042B11D07B685B78FA789A42DC
S2144045D001D17B680CE07B681B781A467B681344E5
S2144045E07B60FA687B689A42EAD800E000BF002306
S2144045F018461037BD4680BD7D45400080B584B026
S21440460000AF03460A46FB711346BB711E4B1B7830
S214404610002B01D1002332E01C4B1B681B681B7922
S214404620FA799A4201D3002329E0184B1B681B688D
S214404630174A1360174B9847F8601AE0144B1B68EC
S2144046405B78042B0DD1124B1B689B78FA799A4203
S21440465007D10F4B1B68DB78BA799A4201D1012308
S2144046600DE00B4B1B680A4A126812781344084A3E
S2144046701360074B1B68FA689A42DFD80023184637
S2144046801037BD4680BD00BFAC870020B0870020F5
S214404690B48700207D45400080B584B000AF034617
S2144046A0FB71FB79002118461E4B9847034683F062
S2144046B00103DBB2002B01D000232FE01A4B1B680E
S2144046C05A68FB799B0013441B68BB60BB68DB6879
S2144046D0984703461A46FB7911461846114B9847A9
S2144046E0034683F00103DBB2002B01D0002315E024
S2144046F00E4B1B68FB600521F8680D4B9847F86029
S214404700FB68002B05D0FB689B781846094B9847FA
S214404710F1E700BFBB685B6898470123184610372F
S214404720BD4680BDFD454000B0870020B4870020D0
S214404730A14540006D5A400080B584B000AF0346A6
S2144047400A46FB711346BB71BA79FB791146184687
S2144047501A4B9847034683F00103DBB2002B01D087
S214404760002327E0164B1B68FB600521F868154BB5
S2144047709847F860FB68002B11D0FB689878FB6878
S214404780D978FB689B889BB21A460F4B98470346DE
S21440479083F00103DBB2002BE7D000230AE000BF22
S2144047A00A4B1B685A68FB799B0013441B681B68BE
S2144047B09847034618461037BD4680BDFD45400025
S2144047C0B4870020A145400099584000B08700209B
S2144047D080B500AF014B984700BF80BDA55640004E
S2144047E080B582B000AF0F4B1B78002B10D0002353
S2144047F0FB7106E0FB7918460B4B9847FB79013373
S214404800FB710A4B1B681B681B79FA799A42F1D3F5
S214404810044B00221A70064B01221A8000BF08374C
S214404820BD4680BDAC87002099464000B08700203A
S214404830A487002080B582B000AF144B1B78002BB5
S2144048401FD00023FB7115E0114B1B685A68FB799B
S2144048509B0013441B681B69002B08D00C4B1B683D
S2144048605A68FB799B0013441B681B699847FB7981
S2144048700133FB71064B1B681B681B79FA799A4219
S214404880E2D300BF0837BD4680BD00BFAC870020DE
S214404890B087002080B500AF064BDB88022B01D0E6
S2144048A0002304E002210448044B9847012318469D
S2144048B080BD00BF6C890020A4870020715840004E
S2144048C080B500AF0B4BDB88022B01D000230EE0F7
S2144048D0084B9B88DBB21846074B984703469AB26C
S2144048E0064B1A8002210548054B98470123184677
S2144048F080BD00BF6C890020DD5A4000B88700208C
S2144049007158400080B400AF0C4BDB88002B01D0C0
S21440491000230DE0094B5B88012B08D1084B1B8810
S21440492023F002039AB2064B1A80012300E00023CC
S2144049301846BD465DF8047B704700BF6C89002072
S214404940A487002080B500AF0A4BDB88002B01D03F
S21440495000230CE0074B5B88002B07D1054B9B8858
S214404960DBB21846044B9847034600E0002318463F
S21440497080BD00BF6C890020455C400080B400AF1D
S214404980094BDB88002B01D0002307E0064B5B88F1
S214404990012B02D000BF002300E000231846BD468E
S2144049A05DF8047B704700BF6C89002080B500AF7F
S2144049B00D4BDB88002B01D0002312E00A4B5B88AE
S2144049C0002B0DD1084B9B88DBB21846074B984707
S2144049D0054B9B88DBB21846054B9847034600E0DC
S2144049E00023184680BD00BF6C890020B55E40009D
S2144049F0515B400080B500AF054B5B88DBB203F0EF
S214404A007F03DBB21846034B984700BF80BD00BF0C
S214404A106C890020AD57400080B400AF074BDB8860
S214404A20002B01D0002303E0044B054A1A61012302
S214404A301846BD465DF8047B704700BF6C89002071
S214404A40F549400080B582B000AF0023BB711C4BD7
S214404A505B88DBB2002B08D104211A481A4B9847D2
S214404A6000BFBB79002B25D001E0002323E00023C4
S214404A70FB710DE0FB79FA7939680A44127891B2F5
S214404A80124A5B0013440A465A80FB790133FB7195
S214404A90FA79BB799A42EDD3BB790133DBB25B003E
S214404AA0DAB20A4B1A70094B1B789BB21946074874
S214404AB0054B9847012318460837BD4680BD00BFC2
S214404AC06C890020A401002071584000A8010020F5
S214404AD080B582B000AF414B5B88FB713F4B5B8833
S214404AE01B0A9BB2DBB2013B0E2B65D801A252F8E3
S214404AF023F000BF314B4000474B4000A54B4000E1
S214404B00B94B4000B94B4000B94B4000B94B400050
S214404B10B94B4000B94B4000B94B4000B94B400040
S214404B20B94B4000B94B4000B94B4000834B400066
S214404B302B4B1A682A4B1B681B789BB219461046AB
S214404B40284B98473BE0264B1B685B7CFA799A4299
S214404B5001D300233EE0224B5A68FB79DB00134426
S214404B6018681F4B5A68FB79DB0013441B685B8848
S214404B709BB219461B4B9847184B9B6802225A70AB
S214404B801DE0174B9B68002B01D1002322E0144BFD
S214404B909A68134B9B685B889BB219461046114B2C
S214404BA098470CE0104B9847034683F00103DBB26E
S214404BB0002B03D000230DE000230BE000BF074B83
S214404BC0DA88064B9B899A4203D2044BDA88034B19
S214404BD09A81012318460837BD4680BD6C8900205F
S214404BE06401002071584000454A400080B500AF3F
S214404BF0064BDB88012B01D0002304E0012104484A
S214404C00044B98470123184680BD00BF6C8900209E
S214404C10AC8700207158400080B582B000AF274B6B
S214404C20DB88002B01D0002343E0254B9847034602
S214404C30002B01D100233CE0204B5B88DBB2214AAD
S214404C401268527C934201DD002332E01E4B9847A7
S214404C501A4B5B88DAB21D4B1A701C4B1B78002B24
S214404C6001D1012325E0174B5A68184B1B7803F1F6
S214404C700053013BDB001344154A13600023FB71CD
S214404C800FE0FB7900211846124B9847034683F005
S214404C900103DBB2002B01D000230AE0FB7901338D
S214404CA0FB710B4B1B681B681B79FA799A42E8D359
S214404CB0012318460837BD4680BD00BF6C890020DA
S214404CC01158400064010020E1474000AC870020B6
S214404CD0B08700203947400080B582B000AF1E4BF9
S214404CE0DB88012B01D0002332E01C4B1B78002BC5
S214404CF001D100232CE0184B9B88FB71184B1B6896
S214404D001B681B79FA799A4201D3002320E0FB798D
S214404D1000211846134B9847034683F00103DBB245
S214404D20002B01D0002313E00D4B1B685A68FB791B
S214404D309B0013441B683B603B68DB689847034610
S214404D401A46094B1A7001210748084B9847012319
S214404D5018460837BD4680BD6C890020AC870020C9
S214404D60B0870020FD454000A887002071584000CD
S214404D7080B582B000AF144BDB88002B01D00023F7
S214404D801EE0124B1B78002B01D1002318E00E4B7F
S214404D909B88FB710C4B5B88BB71FB7918460C4BB0
S214404DA09847034683F00103DBB2002B01D0002373
S214404DB006E0BA79FB7911461846064B98470346F3
S214404DC018460837BD4680BD6C890020AC87002059
S214404DD0994640003947400080B500AF4D4B1B78A0
S214404DE05BB2002B3EDA4B4BDB88002B01D1002315
S214404DF08EE0484B1B7803F01F03002B14D1454B25
S214404E005B78062B08D0082B0AD0002B00D00BE08E
S214404E10414B984703467BE0404B9847034677E034
S214404E203F4B9847034673E03A4B1B7803F01F030B
S214404E30012B08D1374B5B780A2B00D003E0394B67
S214404E409847034664E0334B1B7803F01F03022B5E
S214404E505DD1304B5B78002B00D058E0324B984702
S214404E60034655E02B4B1B7803F01F03002B2AD13B
S214404E70284B5B78013B082B24D801A252F823F03C
S214404E80AD4E4000C54E4000B54E4000C54E4000B9
S214404E90A54E4000C54E4000C54E4000C54E4000A1
S214404EA0BD4E4000214B9847034631E0204B984783
S214404EB003462DE01F4B9847034629E01E4B984774
S214404EC0034625E000BF134B1B7803F01F03012B5E
S214404ED008D1104B5B780B2B00D003E0174B98475C
S214404EE0034615E00B4B1B7803F01F03022B0ED135
S214404EF0084B5B78012B02D0032B04D007E0104B05
S214404F009847034604E00F4B9847034600E00023CB
S214404F10184680BD6C89002095484000D14A400024
S214404F20ED4B4000D94C4000C1484000194A400073
S214404F30054940007D494000194C4000714D4000F5
S214404F4045494000AD49400080B582B000AF204B97
S214404F501B78002B01D1002336E01E4B9B88FB714B
S214404F601D4B1B681B681B79FA799A4201D30023B4
S214404F702AE0FB7900211846184B9847034683F0F1
S214404F800103DBB2002B01D000231DE0124B1B684F
S214404F905A68FB799B0013441B683B603B68DB68A0
S214404FA0984703461A46FB79114618460B4B9847D6
S214404FB0034683F00103DBB2002B01D0002303E05D
S214404FC03B689B689847034618460837BD4680BDF1
S214404FD0AC8700206C890020B0870020FD4540004B
S214404FE080B582B000AF1E4B1B78002B01D100234A
S214404FF032E01C4B9B88FB710023FB7124E01A4B6C
S2144050001B685A68FB799B0013441B683B603B68EF
S214405010DB68984703461A46FB7911461846134BF9
S2144050209847034683F00103DBB2002B01D00023F0
S21440503012E03B689B6898470346002B01D001234B
S2144050400AE0FB790133FB71074B1B681B681B7931
S214405050FA799A42D3D3002318460837BD4680BD16
S214405060AC8700206C890020B0870020FD454000BA
S21440507080B500AF1E4B00229A811D4B00221A615C
S2144050801B4B00225A611A4B1B785BB2002B05DA89
S214405090174BDB88002B01D1002327E0144B1B78ED
S2144050A003F06003002B06D1124B98470346002BB3
S2144050B001D001231AE00E4B1B7803F01F03012B8F
S2144050C006D10D4B98470346002B01D001230DE037
S2144050D0074B1B7803F01F03022B06D1074B98475C
S2144050E00346002B01D0012300E00023184680BD74
S2144050F06C890020D94D4000494F4000E14F4000A8
S21440510080B584B000AF7860396078682C4B98479B
S214405110F86078682B4B98470246FB681340FB6064
S214405120FB68002B3CD00023BB6034E0264ABB68BB
S2144051301B0113441A683B689A4226D1224ABB6830
S2144051401B01134404331A68FB681340002B1CD021
S2144051501D4ABB681B0113440C331B681A49BA68C6
S21440516012010A4410681849BA6812010A44043207
S214405170126811469847144ABB681B01134404330F
S2144051801B68DB43FA681340FB60BB680133BB60B7
S214405190BB68062B03D8FB68002BC7D100E000BFD6
S2144051A00A4B1B68002B07D0094B1B68002B03D00B
S2144051B0074B1B687868984700BF1037BD4680BDD0
S2144051C0B1754000C9754000BC8700208489002026
S2144051D03088002080B586B000AFF860B9607A604D
S2144051E03B60214B1B68062B01D9012338E0002386
S2144051F0FB7511E0FB7D1B011C4A13443B613B6978
S2144052001A68BB689A4204D13B695A687B689A42DE
S21440521008D0FB7D0133FB75FA7D134B1B689A4221
S214405220E8D900E000BF3B69BA681A603B697A6813
S2144052305A603B693A689A603B693A6ADA60FA7D36
S214405240094B1B6801339A4204D1074B1B68013354
S214405250054A13603A687968F868054B9847002312
S21440526018461837BD4680BD2C880020BC870020D5
S2144052700D75400080B500AF09210248024B9847A3
S21440528000BF80BD000E0E400151400080B500AF0B
S2144052900A210248024B984700BF80BD00100E40CE
S2144052A00151400080B500AF0B210248024B9847A1
S2144052B000BF80BD00120E400151400080B500AFD7
S2144052C00C210248024B984700BF80BD00140E4098
S2144052D00151400080B500AF0D210248024B98476F
S2144052E000BF80BD00160E400151400080B483B020
S2144052F000AF0346FB71094997F907305B09FA7915
S21440530002F01F02012000FA02F241F8232000BFFB
S2144053100C37BD465DF8047B704700BF00E100E0F7
S21440532080B483B000AF03463960FB7197F907300D
S214405330002B0BDA0D49FB7903F00F03043B3A6868
S214405340D2B21201D2B20B441A7609E0084997F954
S21440535007303A68D2B21201D2B20B4483F8002327
S21440536000BF0C37BD465DF8047B704700ED00E09B
S21440537000E100E080B483B000AFEFF310837B60C1
S2144053807B68002B0CBF01230023DBB23B6072B668
S214405390BFF35F8F044B00221A703B6818460C37E9
S2144053A0BD465DF8047B7047AA01002080B483B0F8
S2144053B000AF78607B68002B14BF01230023DBB26C
S2144053C018460C37BD465DF8047B704780B582B002
S2144053D000AF78607868074B98470346002B05D0A7
S2144053E0054B01221A70BFF35F8F62B600BF0837C5
S2144053F0BD4680BDAD534000AA01002080B584B0B4
S21440540000AF0346FB71FB790A4AD35CFF2B00D101
S214405410FEE7094B9847F860FB79064AD25C0132B2
S214405420D1B2044AD154F868044B984700BF1037AD
S214405430BD4680BD6489002075534000CD53400072
S21440544080B584B000AF0346FB71FB790A4AD35C53
S214405450002B00D1FEE7094B9847F860FB79064AD7
S214405460D25C013AD1B2044AD154F868044B98470A
S21440547000BF1037BD4680BD64890020755340008C
S214405480CD53400080B582B000AF0346FB71FB7938
S21440549083F00103DBB2002B06D00D4B1B78002BAC
S2144054A002D002200B4B9847FB79002B09D0084BC3
S2144054B01B7883F00103DBB2002B02D00220064BA0
S2144054C09847034AFB79137000BF0837BD4680BD36
S2144054D03488002041544000FD53400080B500AF62
S2144054E0634B9847034683F00103DBB2002B0CD096
S2144054F0604BDB6903F48073002B06D172B6BFF3B2
S2144055005F8F5D4B00221A70B1E023205B4B9847BB
S214405510584B9B6903F40063002B0CD0554BDB695A
S21440552003F40063002B06D0524B4FF400621A621D
S214405530534B984799E0534B98470346002B40F00F
S2144055409180514B98470346002B40F08D80494B45
S2144055509B6903F40053002B05D0464BDB6903F4EC
S2144055600053002B17D1434B9B6903F40073002B69
S21440557005D0404BDB6903F40073002B0BD13D4B49
S2144055809B6903F48063002B1DD03A4BDB6903F420
S2144055908063002B17D0374B4FF418521A62354BA6
S2144055A04FF418525A610120384B9847314B4FF40C
S2144055B080721A622F4B4FF480721A612D4B4FF453
S2144055C000621A6151E02B4B9B6903F48073002BF9
S2144055D020D0284BDB6903F48073002B1AD0254B70
S2144055E04FF480721A62234B4FF480725A61214BFB
S2144055F04FF400521A611F4B4FF400721A611D4B54
S2144056004FF480621A612320214B984700201F4B9D
S21440561098472AE0174BDB6903F48053002B25D0CC
S214405620144B4FF480521A621A4B98471A4B9847BD
S214405630104A104B5B6823F0010353600D4A0D4B34
S2144056405B6823F002035360144B9847144B98470B
S214405650084B4FF480721A61064B4FF400621A6191
S21440566000BF02E000BF00E000BF00BF00BF80BD3B
S214405670AD83400000400840AA0100203D82400023
S214405680354840006D684000716F400085544000CA
S214405690C1824000C1694000E1474000BD60400013
S2144056A06561400080B582B000AF124B9847786085
S2144056B02320114B9847114B984700212320104B2D
S2144056C0984723200F4B98470F4B98474FF480201E
S2144056D00E4B98470E4B00221A7000200D4B9847F1
S2144056E00D4B984778680D4B984700BF0837BD4626
S2144056F080BD00BF755340003D824000A178400009
S21440570021534000ED52400015694000818340001F
S21440571034880020FD53400021574000CD534000C0
S21440572080B582B000AF184B984778600120174B81
S21440573098472320164B9847164A164B5B6F23F420
S21440574080735367134A134B5B6F43F4007353677E
S214405750104B4FF480721A610E4B4FF400521A6190
S2144057600C4B4FF400721A610A4B4FF480621A6178
S214405770084B4FF400621A617868074B984700BFA1
S2144057800837BD4680BD00BF755340008554400075
S2144057903D82400000400840CD53400080B400AFFA
S2144057A000231846BD465DF8047B704780B483B03E
S2144057B000AF0346FB71154A144B5B6823F00103A8
S2144057C05360124A114B9B6823F480739360FB79B5
S2144057D0002B15D00D490D4B9B6823F07F02FB79BB
S2144057E003F07F0313438B60084A084B9B6843F4DF
S2144057F080739360054A054B5B6843F00103536032
S21440580000BF0C37BD465DF8047B7047004008403B
S21440581080B400AF094B5B6803F00103002B06D051
S214405820064B9B68DBB203F07F03DBB200E000234D
S2144058301846BD465DF8047B704700BF00400840F0
S21440584080B400AF054B1B689BB2C3F30A039BB200
S2144058501846BD465DF8047B704700BF00400840D0
S21440586080B400AF00231846BD465DF8047B704701
S21440587080B483B000AF78600B467B80054A7B6877
S2144058809360044A7B88938100BF0C37BD465DF821
S214405890047B70476C89002080B487B000AF034615
S2144058A0FB710B46BB711346BB80FB7903F080034C
S2144058B0002B14BF01230023FB75BB7903F00303C1
S2144058C0012B0CBF01230023BB75FB7903F00F03AC
